{
  "contractName": "Auction",
  "abi": [
    {
      "constant": true,
      "inputs": [],
      "name": "rule",
      "outputs": [
        {
          "name": "startingPrice",
          "type": "uint8"
        },
        {
          "name": "minimumStep",
          "type": "uint8"
        }
      ],
      "payable": false,
      "stateMutability": "view",
      "type": "function"
    },
    {
      "constant": true,
      "inputs": [],
      "name": "auctioneer",
      "outputs": [
        {
          "name": "",
          "type": "address"
        }
      ],
      "payable": false,
      "stateMutability": "view",
      "type": "function"
    },
    {
      "constant": true,
      "inputs": [],
      "name": "currentPrice",
      "outputs": [
        {
          "name": "",
          "type": "uint8"
        }
      ],
      "payable": false,
      "stateMutability": "view",
      "type": "function"
    },
    {
      "constant": true,
      "inputs": [],
      "name": "currentWinner",
      "outputs": [
        {
          "name": "",
          "type": "address"
        }
      ],
      "payable": false,
      "stateMutability": "view",
      "type": "function"
    },
    {
      "constant": true,
      "inputs": [],
      "name": "state",
      "outputs": [
        {
          "name": "",
          "type": "uint8"
        }
      ],
      "payable": false,
      "stateMutability": "view",
      "type": "function"
    },
    {
      "constant": true,
      "inputs": [],
      "name": "announcementTimes",
      "outputs": [
        {
          "name": "",
          "type": "uint8"
        }
      ],
      "payable": false,
      "stateMutability": "view",
      "type": "function"
    },
    {
      "constant": true,
      "inputs": [
        {
          "name": "",
          "type": "address"
        }
      ],
      "name": "bidders",
      "outputs": [
        {
          "name": "token",
          "type": "uint8"
        },
        {
          "name": "deposit",
          "type": "uint8"
        }
      ],
      "payable": false,
      "stateMutability": "view",
      "type": "function"
    },
    {
      "inputs": [
        {
          "name": "_startingPrice",
          "type": "uint8"
        },
        {
          "name": "_minimumStep",
          "type": "uint8"
        }
      ],
      "payable": false,
      "stateMutability": "nonpayable",
      "type": "constructor"
    },
    {
      "constant": false,
      "inputs": [
        {
          "name": "_account",
          "type": "address"
        },
        {
          "name": "_token",
          "type": "uint8"
        }
      ],
      "name": "register",
      "outputs": [],
      "payable": false,
      "stateMutability": "nonpayable",
      "type": "function"
    },
    {
      "constant": false,
      "inputs": [],
      "name": "startSession",
      "outputs": [],
      "payable": false,
      "stateMutability": "nonpayable",
      "type": "function"
    },
    {
      "constant": false,
      "inputs": [
        {
          "name": "_price",
          "type": "uint8"
        }
      ],
      "name": "bid",
      "outputs": [],
      "payable": false,
      "stateMutability": "nonpayable",
      "type": "function"
    },
    {
      "constant": false,
      "inputs": [],
      "name": "announce",
      "outputs": [],
      "payable": false,
      "stateMutability": "nonpayable",
      "type": "function"
    },
    {
      "constant": false,
      "inputs": [],
      "name": "getDeposit",
      "outputs": [],
      "payable": false,
      "stateMutability": "nonpayable",
      "type": "function"
    }
  ],
  "bytecode": "0x606060405260008060006101000a81548160ff0219169083600381111561002257fe5b021790555060008060016101000a81548160ff021916908360ff16021790555060008060026101000a81548160ff021916908360ff1602179055506000600360146101000a81548161ffff021916908361ffff160217905550341561008657600080fd5b604051604080610d1d8339810160405280805190602001909190805190602001909190505033600360006101000a81548173ffffffffffffffffffffffffffffffffffffffff021916908373ffffffffffffffffffffffffffffffffffffffff16021790555081600160000160006101000a81548160ff021916908360ff16021790555080600160000160016101000a81548160ff021916908360ff16021790555081600060026101000a81548160ff021916908360ff1602179055505050610bc9806101546000396000f300606060405236156100b8576000357c0100000000000000000000000000000000000000000000000000000000900463ffffffff16806307e49598146100bd57806325e3d5221461010257806333500e261461013e5780635ec2c7bf146101645780638f970df0146101b95780639d1b464a146101ce578063aabe2fe3146101fd578063c19d93fb14610252578063c399ec8814610289578063e4f8c1b61461029e578063fcc8f793146102cd578063fe0ae1651461032d575b600080fd5b34156100c857600080fd5b610100600480803573ffffffffffffffffffffffffffffffffffffffff1690602001909190803560ff16906020019091905050610342565b005b341561010d57600080fd5b61011561045f565b604051808360ff1660ff1681526020018260ff1660ff1681526020019250505060405180910390f35b341561014957600080fd5b610162600480803560ff1690602001909190505061048b565b005b341561016f57600080fd5b6101776106e8565b604051808273ffffffffffffffffffffffffffffffffffffffff1673ffffffffffffffffffffffffffffffffffffffff16815260200191505060405180910390f35b34156101c457600080fd5b6101cc61070e565b005b34156101d957600080fd5b6101e161081c565b604051808260ff1660ff16815260200191505060405180910390f35b341561020857600080fd5b61021061082f565b604051808273ffffffffffffffffffffffffffffffffffffffff1673ffffffffffffffffffffffffffffffffffffffff16815260200191505060405180910390f35b341561025d57600080fd5b610265610855565b6040518082600381111561027557fe5b60ff16815260200191505060405180910390f35b341561029457600080fd5b61029c610867565b005b34156102a957600080fd5b6102b1610a8c565b604051808260ff1660ff16815260200191505060405180910390f35b34156102d857600080fd5b610304600480803573ffffffffffffffffffffffffffffffffffffffff16906020019091905050610a9f565b604051808360ff1660ff1681526020018260ff1660ff1681526020019250505060405180910390f35b341561033857600080fd5b610340610add565b005b600080600181600381111561035357fe5b6000809054906101000a900460ff16600381111561036d57fe5b14151561037957600080fd5b80156103dc57600360009054906101000a900473ffffffffffffffffffffffffffffffffffffffff1673ffffffffffffffffffffffffffffffffffffffff163373ffffffffffffffffffffffffffffffffffffffff161415156103db57600080fd5b5b600460008673ffffffffffffffffffffffffffffffffffffffff1673ffffffffffffffffffffffffffffffffffffffff1681526020019081526020016000209250838360000160006101000a81548160ff021916908360ff16021790555060008360000160016101000a81548160ff021916908360ff1602179055505050505050565b60018060000160009054906101000a900460ff16908060000160019054906101000a900460ff16905082565b60008060008081600381111561049d57fe5b6000809054906101000a900460ff1660038111156104b757fe5b1415156104c357600080fd5b801561052657600360009054906101000a900473ffffffffffffffffffffffffffffffffffffffff1673ffffffffffffffffffffffffffffffffffffffff163373ffffffffffffffffffffffffffffffffffffffff1614151561052557600080fd5b5b339350600460008573ffffffffffffffffffffffffffffffffffffffff1673ffffffffffffffffffffffffffffffffffffffff1681526020019081526020016000209250600160000160019054906101000a900460ff16600060029054906101000a900460ff160160ff168560ff1610156105a057600080fd5b8260000160019054906101000a900460ff168360000160009054906101000a900460ff160160ff168560ff1611156105d757600080fd5b8260000160019054906101000a900460ff1685038360000160009054906101000a900460ff16038360000160006101000a81548160ff021916908360ff160217905550848360000160016101000a81548160ff021916908360ff1602179055508460ff16600360148282829054906101000a900461ffff160192506101000a81548161ffff021916908361ffff16021790555084600060026101000a81548160ff021916908360ff16021790555083600260006101000a81548173ffffffffffffffffffffffffffffffffffffffff021916908373ffffffffffffffffffffffffffffffffffffffff16021790555060008060016101000a81548160ff021916908360ff1602179055505050505050565b600360009054906101000a900473ffffffffffffffffffffffffffffffffffffffff1681565b60018081600381111561071d57fe5b6000809054906101000a900460ff16600381111561073757fe5b14151561074357600080fd5b80156107a657600360009054906101000a900473ffffffffffffffffffffffffffffffffffffffff1673ffffffffffffffffffffffffffffffffffffffff163373ffffffffffffffffffffffffffffffffffffffff161415156107a557600080fd5b5b6003600060019054906101000a900460ff1660ff1610156107f4576001600060018282829054906101000a900460ff160192506101000a81548160ff021916908360ff160217905550610818565b60026000806101000a81548160ff0219169083600381111561081257fe5b02179055505b5050565b600060029054906101000a900460ff1681565b600260009054906101000a900473ffffffffffffffffffffffffffffffffffffffff1681565b6000809054906101000a900460ff1681565b6000806002600081600381111561087a57fe5b6000809054906101000a900460ff16600381111561089457fe5b1415156108a057600080fd5b801561090357600360009054906101000a900473ffffffffffffffffffffffffffffffffffffffff1673ffffffffffffffffffffffffffffffffffffffff163373ffffffffffffffffffffffffffffffffffffffff1614151561090257600080fd5b5b339350600260009054906101000a900473ffffffffffffffffffffffffffffffffffffffff1673ffffffffffffffffffffffffffffffffffffffff168473ffffffffffffffffffffffffffffffffffffffff16141561096157600080fd5b600460008573ffffffffffffffffffffffffffffffffffffffff1673ffffffffffffffffffffffffffffffffffffffff16815260200190815260200160002092508260000160019054906101000a900460ff168360000160008282829054906101000a900460ff160192506101000a81548160ff021916908360ff1602179055508260000160019054906101000a900460ff1660ff16600360148282829054906101000a900461ffff160392506101000a81548161ffff021916908361ffff16021790555060008360000160016101000a81548160ff021916908360ff1602179055506000600360149054906101000a900461ffff1661ffff16111515610a865760036000806101000a81548160ff02191690836003811115610a8057fe5b02179055505b50505050565b600060019054906101000a900460ff1681565b60046020528060005260406000206000915090508060000160009054906101000a900460ff16908060000160019054906101000a900460ff16905082565b60006001816003811115610aed57fe5b6000809054906101000a900460ff166003811115610b0757fe5b141515610b1357600080fd5b8015610b7657600360009054906101000a900473ffffffffffffffffffffffffffffffffffffffff1673ffffffffffffffffffffffffffffffffffffffff163373ffffffffffffffffffffffffffffffffffffffff16141515610b7557600080fd5b5b60016000806101000a81548160ff02191690836003811115610b9457fe5b021790555050505600a165627a7a72305820894fcf092220b97041187a65ed5197f5b7d6642cdcd4a9250f1e193a35caa4ff0029",
  "source": "pragma solidity ^0.4.17;\r\n\r\ncontract Auction {\r\n    \r\n    // Data\r\n    \r\n    // Structure to hold details of Bidder\r\n    struct IBidder {\r\n        uint8 token;\r\n        uint8 deposit;\r\n    }\r\n    \r\n    // Structure to hold details of Rule\r\n    struct IRule {\r\n        uint8 startingPrice;\r\n        uint8 minimumStep;\r\n    }\r\n    \r\n    \r\n    // State Enum to define Auction's state\r\n    enum State { CREATED, STARTED, CLOSING, CLOSED }\r\n    \r\n    State public state = State.CREATED; // State of Auction\r\n    \r\n    uint8 public announcementTimes = 0; // Number of announcements\r\n    uint8 public currentPrice = 0; // Latest price is bid.\r\n    IRule public rule; // Rule of this session\r\n    address public currentWinner; // Current Winner, who bid the highest price.\r\n    address public auctioneer;\r\n    \r\n    uint16 private totalDeposit = 0;\r\n    \r\n    mapping(address => IBidder) public bidders; // Mapping to hold bidders' information\r\n    \r\n    function Auction(uint8 _startingPrice, uint8 _minimumStep) public {\r\n        \r\n        // Task #1 - Initialize the Smart contract\r\n        // + Initialize Auctioneer with address of smart contract's owner\r\n        // + Set the starting price & minimumStep\r\n        // + Set the current price as the Starting price\r\n        \r\n        \r\n        // ** Start code here. 4 lines approximately. ** /\r\n        auctioneer = msg.sender;\r\n        rule.startingPrice = _startingPrice;\r\n        rule.minimumStep = _minimumStep;\r\n        currentPrice = _startingPrice;\r\n        // ** End code here. ** /\r\n    }\r\n    \r\n    \r\n    // Register new Bidder\r\n    function register(address _account, uint8 _token) valid(State.CREATED, true) public { \r\n        \r\n                \r\n        // Task #2 - Register the bidder\r\n        // + Initialize a Bidder with address and token are given.\r\n        // + Initialize a Bidder's deposit with 0\r\n        \r\n        \r\n        // ** Start code here. 3 lines approximately. ** /\r\n        IBidder storage currentBidder = bidders[_account];\r\n        currentBidder.token = _token;\r\n        currentBidder.deposit = 0;\r\n\t   // ** End code here. **/\r\n    }\r\n\r\n    \r\n    // Start the session.\r\n    function startSession() valid(State.CREATED, true) public {\r\n        state = State.STARTED;\r\n    }\r\n    \r\n\r\n    \r\n    function bid(uint8 _price) valid(State.CREATED, false) public {\r\n        \r\n        // Task #3 - Bid by Bidders\r\n        // + Check the price with currentPirce and minimumStep. Revert if invalid.\r\n        // + Check if the Bidder has enough token to bid. Revert if invalid.\r\n        // + Move token to Deposit.\r\n        \r\n        address bidderAddr = msg.sender;\r\n        IBidder storage currentBidder = bidders[bidderAddr];\r\n        \r\n        // ** Start code here.  ** /\r\n        if (_price < currentPrice + rule.minimumStep) revert();\r\n        \r\n        if (_price > currentBidder.token + currentBidder.deposit) revert();\r\n        \r\n        currentBidder.token =  currentBidder.token - (_price - currentBidder.deposit);\r\n        currentBidder.deposit = _price;\r\n\t\t// ** End code here. **/\r\n        \r\n        // Tracking deposit\r\n        totalDeposit += _price;\r\n        \r\n        // Update the price and the winner after this bid.\r\n        currentPrice = _price;\r\n        currentWinner = bidderAddr;\r\n        \r\n        // Reset the Annoucements Counter\r\n        announcementTimes = 0;\r\n    }\r\n    \r\n    function announce() valid(State.STARTED, true) public {\r\n        \r\n        // Task #4 - Handle announcement.\r\n        // + When Auctioneer annouce, increase the counter.\r\n        // + When Auctioneer annouced more than 3 times, switch session to Closing state.\r\n        \r\n        // ** Start code here.  ** /\r\n        if (announcementTimes < 3) {\r\n            announcementTimes += 1;\r\n        } else {\r\n            state = State.CLOSING;\r\n        }\r\n        // ** End code here. **/\r\n    }\r\n    \r\n    function getDeposit() valid(State.CLOSING, false) public {\r\n        \r\n        // Task #5 - Handle get Deposit.\r\n        // + Allow bidders (except Winner) to withdraw their deposit \r\n\t\t// + When all bidders' deposit are withdrew, close the session \r\n        \r\n        // ** Start code here.  ** /\r\n        // HINT: Remember to decrease totalDeposit.\r\n        address bidderAddr = msg.sender;\r\n        \r\n        if(bidderAddr == currentWinner) revert();\r\n        \r\n        IBidder storage currentBidder = bidders[bidderAddr];\r\n        \r\n        currentBidder.token += currentBidder.deposit;\r\n        totalDeposit -= currentBidder.deposit;\r\n        currentBidder.deposit = 0;\r\n\t    \r\n        if (totalDeposit <= 0) {\r\n            state = State.CLOSED;\r\n        }\r\n       \r\n\t    // ** End code here ** / \r\n    }\r\n\r\n    //modifiers\r\n    modifier valid(State reqState, bool auctioneerRequire)\r\n    { \r\n        require(state == reqState);\r\n        if(auctioneerRequire) {\r\n            require(msg.sender == auctioneer);\r\n        }\r\n        _;\r\n    }\r\n}\r\n\r\n\r\n// PART 2 - Using Modifier to:\r\n// - Check if the action (startSession, register, bid, annoucement, getDeposit) can be done in current State.\r\n// - Check if the current user can do the action.\r\n\r\n",
  "sourcePath": "C:\\Users\\hna_a\\Desktop\\BDP303x\\BDP303x_asm3_anhnFX14878@funix.edu.vn\\contracts\\Auction.sol",
  "compiler": {
    "name": "solc",
    "version": "0.4.17+commit.bdeb9e52.Emscripten.clang"
  },
  "schemaVersion": "3.4.10",
  "updatedAt": "2022-11-14T05:41:40.812Z",
  "networkType": "ethereum",
  "devdoc": {
    "methods": {}
  },
  "userdoc": {
    "methods": {}
  }
}